{
  "contractName": "ModelRepo",
  "abi": [
    {
      "constant": false,
      "inputs": [
        {
          "name": "initErr",
          "type": "uint256"
        }
      ],
      "name": "setInitErr",
      "outputs": [],
      "payable": false,
      "stateMutability": "nonpayable",
      "type": "function"
    },
    {
      "constant": false,
      "inputs": [
        {
          "name": "initErr",
          "type": "uint256"
        },
        {
          "name": "targetErr",
          "type": "uint256"
        }
      ],
      "name": "setModel",
      "outputs": [],
      "payable": true,
      "stateMutability": "payable",
      "type": "function"
    },
    {
      "constant": true,
      "inputs": [],
      "name": "getModel",
      "outputs": [
        {
          "name": "",
          "type": "address"
        },
        {
          "name": "",
          "type": "uint256"
        },
        {
          "name": "",
          "type": "uint256"
        }
      ],
      "payable": false,
      "stateMutability": "view",
      "type": "function"
    },
    {
      "constant": true,
      "inputs": [],
      "name": "getModelInitErr",
      "outputs": [
        {
          "name": "",
          "type": "uint256"
        }
      ],
      "payable": false,
      "stateMutability": "view",
      "type": "function"
    }
  ],
  "bytecode": "0x608060405234801561001057600080fd5b50610211806100206000396000f3fe60806040526004361061003f5760003560e01c80638098d74314610044578063a0bfa1e01461006f578063a0ce01d8146100d4578063f13ee8061461010f575b600080fd5b34801561005057600080fd5b50610059610147565b6040518082815260200191505060405180910390f35b34801561007b57600080fd5b50610084610151565b604051808473ffffffffffffffffffffffffffffffffffffffff1673ffffffffffffffffffffffffffffffffffffffff168152602001838152602001828152602001935050505060405180910390f35b3480156100e057600080fd5b5061010d600480360360208110156100f757600080fd5b8101908080359060200190929190505050610189565b005b6101456004803603604081101561012557600080fd5b810190808035906020019092919080359060200190929190505050610193565b005b6000600154905090565b60008060008060009054906101000a900473ffffffffffffffffffffffffffffffffffffffff16600154600254925092509250909192565b8060018190555050565b336000806101000a81548173ffffffffffffffffffffffffffffffffffffffff021916908373ffffffffffffffffffffffffffffffffffffffff1602179055508160018190555080600281905550505056fea165627a7a723058202285cfc51d9262e7dd8c6c44c27a98000092cadb73aac663c03bcfb08564ef710029",
  "source": "pragma solidity >=0.4.21 <0.6.0;\n/*\n调试合约方法：\n1）truffle develop\n2) migrate --reset\n3）var modelrepo;\n3) ModelRepo.deployed().then((value)=>{modelrepo=value}); 得到合约实例\n4) modelrepo.setModel(111,222)  设置值\n5) modelrepo.getModel().then((value)=>{console.log(value)}) 得到多变量返回值\n\n*/\n\n// https://www.jianshu.com/p/18e642b7bb6a\n\ncontract ModelRepo{\n\n  address owner;\n  uint initialError;\n  uint targetError;\n  bytes32[] modelWeights;\n\n  // function putModel(bytes32[] weights, uint initErr, uint targetErr) public payable {\n\n  function setInitErr(uint initErr) public{\n      initialError = initErr;\n  }\n  function setModel(uint initErr, uint targetErr) public payable {\n\n\n      owner = msg.sender;\n      initialError = initErr;\n      targetError = targetErr;\n\n\n\n\n  }\n  //https://www.jianshu.com/p/b39a4aed3663\n\n  function getModel() view public returns (address, uint,uint) {\n/*\n     bytes memory names = new bytes(modelWeights.length);\n\n     for(uint i = 0; i < modelWeights.length; i++) {\n\n           names[i] = modelWeights[i];\n       }\n*/\n     return  (owner, initialError, targetError);\n  }\n\n  function getModelInitErr() view public returns (uint){\n\n     return initialError;\n\n  }\n\n\n}\n",
  "sourcePath": "/Users/tjian/blockchain/AIonChain/master/smartcontract/contracts/ModelRepo.sol",
  "compiler": {
    "name": "solc",
    "version": "0.5.8+commit.23d335f2.Emscripten.clang"
  },
  "schemaVersion": "3.0.11",
  "updatedAt": "2019-07-31T03:27:41.312Z",
  "devdoc": {
    "methods": {}
  },
  "userdoc": {
    "methods": {}
  }
}